:020000040800F2
:100000000020002085480008991500089D1500086B
:10001000A1150008A5150008A9150008000000009A
:10002000000000000000000000000000AD15000806
:10003000B115000800000000B5150008B91500084A
:10004000CD480008CD480008CD480008CD4800083C
:10005000CD480008CD480008CD480008CD4800082C
:10006000CD480008CD480008CD480008CD4800081C
:10007000CD480008CD480008CD480008CD4800080C
:10008000C5150008CD480008CD4800080000000054
:10009000000000000000000000000000CD48000843
:1000A000D9150008CD480008CD480008CD48000803
:1000B0002919000851190008CD480008CD4800084A
:1000C000CD4800080000000000000000CD480008F6
:1000D000CD480008CD480008CD480008CD480008AC
:1000E000CD480008CD480008CD48000800000000B9
:1000F0000000000000000000000000000000000000
:1001000000000000000000000000000000000000EF
:100110000000000000000000CD480008CD480008A5
:1001200000000000000000000000000000000000CF
:1001300000000000000000000000000000000000BF
:1001400000000000000000000000000000000000AF
:10015000000000000000000000000000000000009F
:10016000000000000000000000000000000000008F
:10017000000000000000000000000000000000007F
:10018000000000000000000000000000000000006F
:10019000000000000000000000000000000000005F
:1001A000000000000000000000000000000000004F
:1001B000000000000000000000000000000000003F
:1001C0000000000000000000000000005FF808F1DF
:1001D000044B05481B1A062B02D9044B03B11847E0
:1001E000704700BFAF000020AC00002000000000FE
:1001F00005490648091A891001EBD171491002D04E
:10020000034B03B118477047AC000020AC0000203E
:100210000000000010B5064C237843B9FFF7D8FF63
:10022000044B13B10448AFF300800123237010BDC9
:10023000AC000020000000005069000808B5084B21
:100240001BB108480849AFF300800848036813B998
:10025000BDE80840CCE7064B002BF9D09847F7E7FC
:100260000000000050690008B0000020AC00002031
:100270000000000081F0004102E000BF83F0004375
:1002800030B54FEA41044FEA430594EA050F08BF31
:1002900090EA020F1FBF54EA000C55EA020C7FEAF5
:1002A000645C7FEA655C00F0E2804FEA5454D4EB72
:1002B0005555B8BF6D420CDD2C4480EA020281EA3C
:1002C000030382EA000083EA010180EA020281EA74
:1002D0000303362D88BF30BD11F0004F4FEA0131C6
:1002E0004FF4801C4CEA113102D0404261EB4101D5
:1002F00013F0004F4FEA03334CEA133302D052425B
:1003000063EB430394EA050F00F0A780A4F1010416
:10031000D5F1200E0DDB02FA0EFC22FA05F2801850
:1003200041F1000103FA0EF2801843FA05F3594136
:100330000EE0A5F120050EF1200E012A03FA0EFCB5
:1003400028BF4CF0020C43FA05F3C01851EBE371DF
:1003500001F0004507D54FF0000EDCF1000C7EEBFC
:1003600000006EEB0101B1F5801F1BD3B1F5001F3A
:100370000CD349085FEA30004FEA3C0C04F1010459
:100380004FEA445212F5800F80F09A80BCF1004F82
:1003900008BF5FEA500C50F1000041EB045141EA04
:1003A000050130BD5FEA4C0C404141EB010111F405
:1003B000801FA4F10104E9D191F0000F04BF0146B0
:1003C0000020B1FA81F308BF2033A3F10B03B3F18E
:1003D00020020CDA0C3208DD02F1140CC2F10C021E
:1003E00001FA0CF021FA02F10CE002F11402D8BF7C
:1003F000C2F1200C01FA02F120FA0CFCDCBF41EA48
:100400000C019040E41AA2BF01EB0451294330BD16
:100410006FEA04041F3C1CDA0C340EDC04F11404F3
:10042000C4F1200220FA04F001FA02F340EA0300CA
:1004300021FA04F345EA030130BDC4F10C04C4F110
:10044000200220FA02F001FA04F340EA03002946F0
:1004500030BD21FA04F0294630BD94F0000F83F43A
:10046000801306BF81F480110134013D4EE77FEA1D
:10047000645C18BF7FEA655C29D094EA050F08BF69
:1004800090EA020F05D054EA000C04BF194610464A
:1004900030BD91EA030F1EBF0021002030BD5FEA8E
:1004A000545C05D14000494128BF41F0004130BDB6
:1004B00014F580043CBF01F5801130BD01F000450A
:1004C00045F0FE4141F470014FF0000030BD7FEA7D
:1004D000645C1ABF194610467FEA655C1CBF0B4678
:1004E000024650EA013406BF52EA033591EA030F8F
:1004F00041F4002130BD00BF90F0000F04BF002187
:10050000704730B54FF4806404F132044FF00005B9
:100510004FF0000150E700BF90F0000F04BF002132
:10052000704730B54FF4806404F1320410F0004598
:1005300048BF40424FF000013EE700BF42004FEA93
:10054000E2014FEA31014FEA02701FBF12F07F4310
:1005500093F07F4F81F06051704792F0000F14BF0D
:1005600093F07F4F704730B54FF4607401F0004551
:1005700021F0004120E700BF50EA010208BF7047A8
:1005800030B54FF000050AE050EA010208BF70479D
:1005900030B511F0004502D5404261EB41014FF406
:1005A000806404F132045FEA915C3FF4DCAE4FF00A
:1005B00003025FEADC0C18BF03325FEADC0C18BFF1
:1005C000033202EBDC02C2F1200300FA03FC20FA42
:1005D00002F001FA03FE40EA0E0021FA02F114448F
:1005E000C1E600BF70B54FF0FF0C4CF4E06C1CEAA4
:1005F00011541DBF1CEA135594EA0C0F95EA0C0F19
:1006000000F0DEF82C4481EA030621EA4C5123EA8B
:100610004C5350EA013518BF52EA033541F48011BA
:1006200043F4801338D0A0FB02CE4FF00005E1FB6D
:1006300002E506F00042E0FB03E54FF00006E1FBB7
:1006400003569CF0000F18BF4EF0010EA4F1FF04FA
:10065000B6F5007F64F5407404D25FEA4E0E6D413A
:1006600046EB060642EAC62141EA55514FEAC5204B
:1006700040EA5E504FEACE2EB4F1FD0C88BFBCF5C7
:10068000E06F1ED8BEF1004F08BF5FEA500E50F178
:10069000000041EB045170BD06F0004646EA01013E
:1006A00040EA020081EA0301B4EB5C04C2BFD4EB70
:1006B0000C0541EA045170BD41F480114FF0000E69
:1006C000013C00F3AB8014F1360FDEBF002001F0D7
:1006D000004170BDC4F10004203C35DA0C341BDC51
:1006E00004F11404C4F1200500FA05F320FA04F023
:1006F00001FA05F240EA020001F0004221F0004157
:1007000010EBD37021FA04F642EB06015EEA430EC9
:1007100008BF20EAD37070BDC4F10C04C4F12005F9
:1007200000FA04F320FA05F001FA04F240EA0200AC
:1007300001F0004110EBD37041F100015EEA430E7D
:1007400008BF20EAD37070BDC4F1200500FA05F29D
:100750004EEA020E20FA04F301FA05F243EA02031C
:1007600021FA04F001F0004121FA04F220EA02002B
:1007700000EBD3705EEA430E08BF20EAD37070BD71
:1007800094F0000F0FD101F00046400041EB010151
:1007900011F4801F08BF013CF7D041EA060195F033
:1007A000000F18BF704703F00046520043EB0303ED
:1007B00013F4801F08BF013DF7D043EA06037047DA
:1007C00094EA0C0F0CEA135518BF95EA0C0F0CD0E5
:1007D00050EA410618BF52EA4306D1D181EA03012B
:1007E00001F000414FF0000070BD50EA410606BF25
:1007F0001046194652EA430619D094EA0C0F02D16A
:1008000050EA013613D195EA0C0F05D152EA0336AE
:100810001CBF104619460AD181EA030101F00041CC
:1008200041F0FE4141F470014FF0000070BD41F015
:10083000FE4141F4780170BD70B54FF0FF0C4CF4EF
:10084000E06C1CEA11541DBF1CEA135594EA0C0F0E
:1008500095EA0C0F00F0A7F8A4EB050481EA030E5B
:1008600052EA03354FEA013100F088804FEA033342
:100870004FF0805545EA131343EA12634FEA022210
:1008800045EA111545EA10654FEA00260EF00041D1
:100890009D4208BF964244F1FD0404F5407402D223
:1008A0005B084FEA3202B61A65EB03055B084FEAB4
:1008B00032024FF480104FF4002CB6EB020E75EBB1
:1008C000030E22BFB61A754640EA0C005B084FEAD9
:1008D0003202B6EB020E75EB030E22BFB61A754656
:1008E00040EA5C005B084FEA3202B6EB020E75EBA1
:1008F000030E22BFB61A754640EA9C005B084FEA19
:100900003202B6EB020E75EB030E22BFB61A754625
:1009100040EADC0055EA060E18D04FEA051545EA14
:1009200016754FEA06164FEAC30343EA52734FEABD
:10093000C2025FEA1C1CC0D111F4801F0BD141EA36
:1009400000014FF000004FF0004CB6E711F4801F9B
:1009500004BF01430020B4F1FD0C88BFBCF5E06F7B
:100960003FF6AFAEB5EB030C04BFB6EB020C5FEA8B
:10097000500C50F1000041EB045170BD0EF0004EE0
:100980004EEA113114EB5C04C2BFD4EB0C0541EA12
:10099000045170BD41F480114FF0000E013C90E60F
:1009A00045EA060E8DE60CEA135594EA0C0F08BFD3
:1009B00095EA0C0F3FF43BAF94EA0C0F0AD150EAD2
:1009C00001347FF434AF95EA0C0F7FF425AF104665
:1009D00019462CE795EA0C0F06D152EA03353FF48D
:1009E000FDAE1046194622E750EA410618BF52EA0A
:1009F00043067FF4C5AE50EA41047FF40DAF52EADE
:100A000043057FF4EBAE12E74FF0FF3C06E000BF7A
:100A10004FF0010C02E000BF4FF0010C4DF804CD87
:100A20004FEA410C7FEA6C5C4FEA430C18BF7FEA47
:100A30006C5C1BD001B050EA410C0CBF52EA430C75
:100A400091EA030F02BF90EA020F0020704710F1F5
:100A5000000F91EA030F58BF994208BF90422CBF84
:100A6000D8176FEAE37040F0010070474FEA410C7D
:100A70007FEA6C5C02D150EA013C07D14FEA430C9B
:100A80007FEA6C5CD6D152EA033CD3D05DF8040B0C
:100A9000704700BF8446104662468C46194663463E
:100AA00000E000BF01B5FFF7B7FF002848BF10F115
:100AB000000F01BD4DF808EDFFF7F4FF0CBF01205A
:100AC00000205DF808FB00BF4DF808EDFFF7EAFFD6
:100AD00034BF012000205DF808FB00BF4DF808ED91
:100AE000FFF7E0FF94BF012000205DF808FB00BF86
:100AF0004DF808EDFFF7CEFF94BF012000205DF810
:100B000008FB00BF4DF808EDFFF7C4FF34BF01201C
:100B100000205DF808FB00BF4FEA410212F5001209
:100B200015D211D56FF47873B3EB625212D94FEA34
:100B3000C12343F0004343EA505311F0004F23FA1E
:100B400002F018BF404270474FF00000704750EA73
:100B5000013005D111F0004008BF6FF00040704730
:100B60004FF00000704700BF4A0011D212F500128A
:100B700011D20DD56FF47873B3EB62520ED44FEAF5
:100B8000C12343F0004343EA505323FA02F0704775
:100B90004FF00000704750EA013002D14FF0FF30B3
:100BA00070474FF0000070474FEA4102B2F1E04356
:100BB00024BFB3F5001CDCF1FE5C0DD901F0004C44
:100BC0004FEAC0024CEA5070B2F1004F40EB830094
:100BD00008BF20F00100704711F0804F21D113F1C0
:100BE0003872BCBF01F00040704741F480114FEAF9
:100BF0005252C2F11802C2F1200C10FA0CF320FA82
:100C000002F018BF40F001004FEAC1234FEAD3239E
:100C100003FA0CFC40EA0C0023FA02F34FEA430308
:100C2000CCE77FEA625307D150EA01331EBF4FF091
:100C3000FE4040F44000704701F0004040F0FE40AC
:100C400040F40000704700BF80F0004002E000BFA9
:100C500081F0004142001FBF5FEA410392EA030FA7
:100C60007FEA226C7FEA236C6AD04FEA1262D2EBF1
:100C70001363C1BFD218414048404140B8BF5B42F6
:100C8000192B88BF704710F0004F40F4000020F08F
:100C90007F4018BF404211F0004F41F4000121F0A5
:100CA0007F4118BF494292EA030F3FD0A2F10102EF
:100CB00041FA03FC10EB0C00C3F1200301FA03F12D
:100CC00000F0004302D5494260EB4000B0F5000F50
:100CD00013D3B0F1807F06D340084FEA310102F10F
:100CE0000102FE2A51D2B1F1004F40EBC25008BFC1
:100CF00020F0010040EA03007047490040EB00008B
:100D000010F4000FA2F10102EDD1B0FA80FCACF1B9
:100D1000080CB2EB0C0200FA0CF0AABF00EBC250B8
:100D200052421843BCBFD0401843704792F0000FA6
:100D300081F4000106BF80F400000132013BB5E7F9
:100D40004FEA41037FEA226C18BF7FEA236C21D06F
:100D500092EA030F04D092F0000F08BF08467047D4
:100D600090EA010F1CBF0020704712F07F4F04D1A2
:100D7000400028BF40F00040704712F100723CBFB5
:100D800000F50000704700F0004343F0FE4040F4DF
:100D9000000070477FEA226216BF08467FEA23639D
:100DA0000146420206BF5FEA412390EA010F40F488
:100DB000800070474FF0000304E000BF10F00043D4
:100DC00048BF40425FEA000C08BF704743F09643BB
:100DD00001464FF000001CE050EA010208BF7047D6
:100DE0004FF000030AE000BF50EA010208BF70475D
:100DF00011F0004302D5404261EB41015FEA010C72
:100E000002BF84460146002043F0B64308BFA3F169
:100E10008053A3F50003BCFA8CF2083AA3EBC2534B
:100E200010DB01FA02FC634400FA02FCC2F120026A
:100E3000BCF1004F20FA02F243EB020008BF20F0A1
:100E40000100704702F1200201FA02FCC2F1200207
:100E500050EA4C0021FA02F243EB020008BF20EAFC
:100E6000DC7070474FF0FF0C1CEAD0521EBF1CEA2A
:100E7000D15392EA0C0F93EA0C0F6FD01A4480EA18
:100E8000010C400218BF5FEA41211ED04FF0006301
:100E900043EA501043EA5111A0FB01310CF000402D
:100EA000B1F5000F3EBF490041EAD3715B0040EA53
:100EB000010062F17F02FD2A1DD8B3F1004F40EB23
:100EC000C25008BF20F00100704790F0000F0CF0F6
:100ED000004C08BF49024CEA502040EA51207F3ABA
:100EE000C2BFD2F1FF0340EAC250704740F4000095
:100EF0004FF00003013A5DDC12F1190FDCBF00F086
:100F000000407047C2F10002410021FA02F1C2F133
:100F1000200200FA02FC5FEA310040F1000053EACF
:100F20004C0308BF20EADC70704792F0000F00F01D
:100F3000004C02BF400010F4000F013AF9D040EA23
:100F40000C0093F0000F01F0004C02BF490011F4B7
:100F5000000F013BF9D041EA0C018FE70CEAD153B5
:100F600092EA0C0F18BF93EA0C0F0AD030F0004C35
:100F700018BF31F0004CD8D180EA010000F00040E9
:100F8000704790F0000F17BF90F0004F084691F0A7
:100F9000000F91F0004F14D092EA0C0F01D14202E1
:100FA0000FD193EA0C0F03D14B0218BF084608D1AA
:100FB00080EA010000F0004040F0FE4040F40000F4
:100FC000704740F0FE4040F4400070474FF0FF0C87
:100FD0001CEAD0521EBF1CEAD15392EA0C0F93EACE
:100FE0000C0F69D0A2EB030280EA010C49024FEA20
:100FF000402037D04FF0805343EA111143EA1013D9
:101000000CF000408B4238BF5B0042F17D024FF490
:10101000000C8B4224BF5B1A40EA0C00B3EB510F6B
:1010200024BFA3EB510340EA5C00B3EB910F24BF54
:10103000A3EB910340EA9C00B3EBD10F24BFA3EBD9
:10104000D10340EADC001B0118BF5FEA1C1CE0D1A1
:10105000FD2A3FF650AF8B4240EBC25008BF20F054
:10106000010070470CF0004C4CEA50207F32C2BFA8
:10107000D2F1FF0340EAC250704740F400004FF045
:101080000003013A37E792F0000F00F0004C02BF76
:10109000400010F4000F013AF9D040EA0C0093F040
:1010A000000F01F0004C02BF490011F4000F013B9A
:1010B000F9D041EA0C0195E70CEAD15392EA0C0F02
:1010C00008D142027FF47DAF93EA0C0F7FF470AF3A
:1010D000084676E793EA0C0F04D14B023FF44CAF7D
:1010E00008466EE730F0004C18BF31F0004CCAD112
:1010F00030F000427FF45CAF31F000437FF43CAF4E
:101100005FE700BF4FF0FF3C06E000BF4FF0010C6F
:1011100002E000BF4FF0010C4DF804CD4FEA400251
:101120004FEA41037FEA226C18BF7FEA236C11D09B
:1011300001B052EA530C18BF90EA010F58BFB2EB4E
:10114000030088BFC81738BF6FEAE17018BF40F0CE
:10115000010070477FEA226C02D15FEA402C05D182
:101160007FEA236CE4D15FEA412CE1D05DF8040B07
:10117000704700BF844608466146FFE70FB5FFF79A
:10118000C9FF002848BF10F1000F0FBD4DF808ED52
:10119000FFF7F4FF0CBF012000205DF808FB00BF43
:1011A0004DF808EDFFF7EAFF34BF012000205DF89D
:1011B00008FB00BF4DF808EDFFF7E0FF94BF0120EA
:1011C00000205DF808FB00BF4DF808EDFFF7D2FFE7
:1011D00094BF012000205DF808FB00BF4DF808ED2A
:1011E000FFF7C8FF34BF012000205DF808FB00BFF7
:1011F0004FEA4002B2F1FE4F0FD34FF09E03B3EB24
:1012000012620DD94FEA002343F0004310F0004F63
:1012100023FA02F018BF404270474FF000007047B9
:1012200012F1610F01D1420205D110F0004008BF58
:101230006FF0004070474FF00000704700F007006B
:10124000064AD36823F4E0631B041B0C43EA002026
:1012500040F0BF6040F40030D060704700ED00E027
:1012600030B4164BDC68C4F30224C4F10705042D26
:1012700028BF0425231D062B01D9033C00E00024D0
:10128000012303FA05F5013D2940A140A340013B9C
:101290001A400A43002806DA00F00F001201D2B209
:1012A000074B1A5407E01201D2B200F1604000F57A
:1012B000614080F8002330BC704700BF00ED00E0C3
:1012C00014ED00E0410900F01F0001238340024AB1
:1012D00042F82130704700BF00E100E00138B0F172
:1012E000807F0AD2064B5860F021064A82F823100C
:1012F0000020986007221A6070470120704700BFE5
:1013000010E000E000ED00E0042805D1054A136874
:1013100043F0040313607047024A136823F0040388
:101320001360704710E000E0704700BF08B5FFF79A
:10133000FBFF08BD00B583B0214B9A6942F0010262
:101340009A619B6903F001030193019B0320FFF75E
:1013500075FF6FF00B0000210A46FFF781FF6FF069
:101360000A0000210A46FFF77BFF6FF00900002109
:101370000A46FFF775FF6FF0040000210A46FFF7E9
:101380006FFF6FF0030000210A46FFF769FF6FF05F
:10139000010000210A46FFF763FF4FF0FF300021F4
:1013A0000A46FFF75DFF074B5A6822F0E0625A6079
:1013B0005A6842F080625A6003B05DF804FB00BFD7
:1013C000001002400000014002680D4B9A4216D105
:1013D00000B587B003F56C439A6942F400729A61D4
:1013E0009B6903F400730193019B0323029303930E
:1013F000044802A901F0D2FF07B05DF804FB704772
:1014000000240140000C014000B585B00368B3F131
:10141000804F13D103F50433DA6942F00102DA6137
:10142000DB6903F001030193019B1C2000210A46A4
:10143000FFF716FF1C20FFF745FF2AE0164A9342EC
:1014400012D1164BDA6942F00202DA61DB6903F06D
:1014500002030293029B1D2000210A46FFF700FFB2
:101460001D20FFF72FFF14E00D4A934211D10B4BC3
:101470009A6942F480329A619B6903F48033039342
:10148000039B182000210A46FFF7EAFE1820FFF709
:1014900019FF05B05DF804FB000400400010024095
:1014A000004001400268204B9A423BD170B586B0A3
:1014B000044603F5E633DA6942F40032DA61DB69A7
:1014C00003F400330193019B04230293022303934B
:1014D00003230593154E304602A901F05FFF082350
:1014E000029300250395049530460DEB030101F0AE
:1014F00055FF0F480F4B0360456085608023C36034
:101500000561456120238361C56100F0EDFC20B1D8
:10151000094840F20F1100F053FB054B63635C6216
:1015200006B070BD704700BF004400400008014095
:101530006C0100206C0002408869000890F83C3083
:10154000012B21D030B4012280F83C20022380F806
:101550003D300468636823F0700363600468656865
:101560000B682B4363600468A36823F08003A360C7
:101570000468A5684B682B43A36080F83D200023D6
:1015800080F83C30184601E00220704730BC7047BC
:10159000704700BF704700BF704700BFFEE700BF45
:1015A000FEE700BFFEE700BFFEE700BF704700BFD9
:1015B000704700BF704700BF08B501F0E1FEFFF7BC
:1015C000B5FE08BD08B5024800F006FD08BD00BF25
:1015D0006C0100200000000038B5A94B1A78D3B286
:1015E00013F0800F00F07581A6490968002900F00A
:1015F0007081A54B1A68002A1CDDA44B1868A44B07
:101600001B6803FB02F393FBF1F1884231DA0130EE
:101610009E4B18609F4C2068FEF790FF92A3D3E981
:101620000023FEF72DFEFFF7BFFA2060012002F035
:10163000EBFD1EE0002A1CDA944B1868944B1B68E3
:1016400003FB02F393FBF1F1884212DD01388F4B6B
:101650001860904C2068FEF771FF83A3D3E9002344
:10166000FEF70CFEFFF7A0FA20604FF0FF3002F00B
:10167000CBFD854B5A68002A1EDD844B5968844B8C
:101680001B6803FB02F37F4A126893FBF2F3994253
:1016900033DA01317D4B59607E4C6068FEF74EFFB6
:1016A00071A3D3E90023FEF7EBFDFFF77DFA60603D
:1016B000022002F0A9FD20E0002A1EDA734B5968CF
:1016C000734B1B6803FB02F36E4A126893FBF2F341
:1016D000994212DD01396D4B59606E4C6068FEF71E
:1016E0002DFF61A3D3E90023FEF7C8FDFFF75CFAE5
:1016F00060606FF0010002F087FD634B9A68002A7A
:101700001EDD624B9968624B1B6803FB02F35D4A66
:10171000126893FBF2F3994233DA01315B4B996023
:101720005C4CA068FEF70AFF51A3D3E90023FEF743
:10173000A7FDFFF739FAA060032002F065FD20E065
:10174000002A1EDA514B9968514B1B6803FB02F3C8
:101750004C4A126893FBF2F3994212DD01394B4B6C
:1017600099604C4CA068FEF7E9FE41A3D3E9002341
:10177000FEF784FDFFF718FAA0606FF0020002F098
:1017800043FD414BDA68002A1EDD404BD968404BCF
:101790001B6803FB02F33B4A126893FBF2F3994286
:1017A00033DA0131394BD9603A4CE068FEF7C6FEB6
:1017B00031A3D3E90023FEF763FDFFF7F5F9E060FD
:1017C000042002F021FD20E0002A1EDA2F4BD96808
:1017D0002F4B1B6803FB02F32A4A126893FBF2F3B8
:1017E000994212DD0139294BD9602A4CE068FEF795
:1017F000A5FE21A3D3E90023FEF740FDFFF7D4F9AE
:10180000E0606FF0030002F0FFFC214B1A681D4BF3
:101810001B689A4257DA511C1D4A11605B1A1E4A16
:101820001268934240DD1D4BDB681D480468A342EB
:1018300067D00132184B1A601A4D2A6850008B008D
:10184000013390FBF3F3D31A2B609C4204DC134862
:10185000C36000F049FE54E01048C46000F044FE4C
:101860004FE000BFAFF300809A9999999999B93FD9
:1018700028AFA1BC86F26A3F9A9999999999A93F94
:10188000300100205801002048010020E80200201B
:10189000CC00002034010020D4000020B001002042
:1018A000F8020020E40200201848C1684C005200F1
:1018B000524213449B000133B4FBF3F3C91AC160D5
:1018C00000F012FE1DE00023114A1360114A13605C
:1018D00017E013F0800F14D00D4B1B688BB902F08A
:1018E0007F020D4B1A7000220C4B1A6044F62063E5
:1018F0000B4A13600548C36000F0F6FD094802F08A
:10190000D1F9024800F0E6FC38BD00BFB00100206C
:1019100058010020D400002030010020CC0000201D
:10192000E4020020A069000808B5074B93F90030D5
:10193000002B05DB02F098F902F0A0F902F0A8F9FB
:10194000024800F0C7FC08BD300100206002002002
:1019500010B5184C204602F07DFE2046164902F0D4
:10196000E5FC48B9204602F09BFD144B1860204668
:1019700002F096FD124B1860104B186802F098FCAC
:10198000DD2802D902F0AAFC01E002F0B1FC0C4B08
:10199000186802F099FC6F2802D902F0B3FC01E04C
:1019A00002F0BAFC034802F051FF064800F092FC36
:1019B00010BD00BF3002002040420F00D0000020C8
:1019C000C8000020F00100202DE9F04188B02E4B26
:1019D0009A6942F010029A619A6902F0100201922B
:1019E000019A9A6942F004029A619A6902F004022B
:1019F0000292029A9A6942F008029A619B6903F086
:101A000008030393039BDFF88C80404640F6CF71B8
:101A1000002201F0B5FD1D4F38464FF47F610022D2
:101A200001F0AEFD1A4C20464FF47071002201F017
:101A3000A7FD40F6CF73049301260596022507956E
:101A4000404604A901F0AAFC4FF47F630493059675
:101A50000795384604A901F0A1FC4FF40053049304
:101A6000002305930693204604A901F097FC4FF448
:101A70007073049305960795204604A901F08EFC27
:101A800008B0BDE8F08100BF00100240000801402E
:101A9000000C01400010014000B583B00A4B5A69A8
:101AA00042F001025A615B6903F001030193019B5B
:101AB000102000210A46FFF7D3FB1020FFF702FC9D
:101AC00003B05DF804FB00BF0010024008B5354BC1
:101AD0001B780A2B1DD00D2B1BD03B2B04D1324978
:101AE0000A7842F002020A70304A12883F2A0AD865
:101AF0002D49097811F0020F53D12D498B54013231
:101B00002A4B1A8008BD284A137843F0010313704A
:101B100008BD264A128826498B54234B1B7813F0A4
:101B2000010F28D1234B1B7813F0200F03D0084658
:101B300002F0E0F820B91F4B1B7813F0200F11D1F1
:101B40001B4802F0F3F80022184B1A8005E0002130
:101B5000174AD1540133154A1380144B1B883F2B6D
:101B6000F5D902E0144802F09DF800230E4A1370E4
:101B70000E4A138008BD114802F094F800220B4B66
:101B80001A8005E000210A4AD1540133074A138024
:101B9000064B1B883F2BF5D90023044A1380024AC9
:101BA000137008BD1C010020180100201A0100203C
:101BB000D800002030010020A4690008A8690008AE
:101BC000FEE700BF08B50B480B4B03604FF4E13351
:101BD000436000238360C36003610C224261836120
:101BE000C36101F039FA20B104484FF4B371FFF733
:101BF000E7FF08BDA002002000440040CC690008B7
:101C000000B587B018484FF0804303600823436055
:101C1000002383606422C2600361836100F064FC7E
:101C200020B1124840F20311FFF7CAFF06A94FF492
:101C3000805341F8103D0C4800F0B6FA20B10B4833
:101C400040F20911FFF7BCFF0023009301930648FF
:101C50006946FFF773FC20B104484FF48871FFF721
:101C6000AFFF07B05DF804FB60020020CC690008FC
:101C700000B587B01848194B036008234360002360
:101C800083606422C2600361836100F02DFC20B197
:101C900013484FF49271FFF793FF06A94FF4805356
:101CA00041F8103D0C4800F07FFA20B10C484FF489
:101CB0009571FFF785FF002300930193064869465D
:101CC000FFF73CFC20B1064840F23111FFF778FFE6
:101CD00007B05DF804FB00BFF001002000040040E5
:101CE000CC69000800B587B019481A4B0360082377
:101CF00043600023836044F62062C2600361436155
:101D0000836100F0F1FB20B113484FF4A371FFF79A
:101D100057FF06A94FF4805341F8103D0C4800F0DE
:101D200043FA20B10C484FF4A671FFF749FF002396
:101D30000093019306486946FFF700FC20B106486E
:101D400040F25311FFF73CFF07B05DF804FB00BF02
:101D5000B001002000400140CC69000800B585B00A
:101D60001A481B4B03604FF4807383600123C360E8
:101D7000002343614FF46022C26143600223036188
:101D800002F0DEFC18B11348DC21FFF719FF08232D
:101D9000019301230293002303930C4801A902F04D
:101DA00083FB18B10B48E621FFF70AFF09230193D3
:101DB00002230293054801A902F076FB18B10548F9
:101DC000EF21FFF7FDFE05B05DF804FB30020020B7
:101DD00000240140CC69000800B593B002230893A9
:101DE00001230C9310230D9300230F9308A800F0F8
:101DF000ADFB18B11948A721FFF7E2FE0F230393AB
:101E00000021049105910691079103A800F0DAFDE5
:101E100018B11248B521FFF7D3FE02230093002327
:101E20000293684600F08CFE18B10C48BC21FFF705
:101E3000C7FE00F05FFE0A4BA3FB00308009FFF7EE
:101E40004DFA0420FFF760FA4FF0FF3000210A46F8
:101E5000FFF706FA13B05DF804FB00BFCC69000879
:101E6000D34D621008B501F07FFAFFF7B5FFFFF719
:101E7000ABFDFFF711FEFFF7A5FEFFF7C1FEFFF771
:101E8000F7FEFFF72FFFFFF769FF074800F080F923
:101E9000064800F07DF9064800F07AF90548064941
:101EA000012201F07BF9FEE760020020F001002032
:101EB000B0010020A00200201C01002070B4C56BFE
:101EC000066C0124B4406C60046863604368102BA6
:101ED00004D103689A600368D96003E003689960DD
:101EE0000368DA6070BC704700282FD010B4034636
:101EF0000168194A0A441948A0FB0202120992001B
:101F00001A64174ADA63022283F821200A6822F44D
:101F10007F5222F030025C6898680443D86804431A
:101F2000186904435869044398690443D8692043F5
:101F300002430A6000209862D8621863586398636D
:101F4000012283F8212083F8200001E0012070475E
:101F50005DF8044B704700BFF8FFFDBFCDCCCCCC83
:101F60000000024038B590F82040012C32D0012406
:101F700080F8204090F82140012C26D10446022010
:101F800084F821000020A0632568286820F0010063
:101F900028602046FFF792FFE36A2BB1226813689E
:101FA00043F00E03136009E02268136823F0040372
:101FB00013602268136843F00A03136022681368F1
:101FC00043F001031360002038BD002380F8203067
:101FD000022038BD022038BD38B5C36B1A680468CA
:101FE0002568016C04238B40134236D015F0040F92
:101FF00033D0236813F0200F03D1236823F00403A8
:1020000023600368424A93421FD0143293421AD08D
:102010001432934214D0143293420ED014329342AD
:1020200008D01432934202D14FF480020EE04FF0F8
:1020300080620BE04FF4802208E04FF4804205E01C
:102040004FF4806202E0402200E00422314B5A60EB
:10205000C36A002B5BD0984738BD02238B401342E4
:102060003BD015F0020F38D0236813F0200F06D1B3
:10207000236823F00A032360012380F821300368DA
:10208000234A93421FD0143293421AD014329342FF
:1020900014D0143293420ED01432934208D014322A
:1020A000934202D14FF400120EE04FF000720BE0A9
:1020B0004FF4003208E04FF4005205E04FF4007294
:1020C00002E0202200E00222124B5A60002380F836
:1020D0002030836ADBB1984738BD08238B40134218
:1020E00015D015F0080F12D0236823F00E032360DB
:1020F000C26B016C012303FA01F15160836380F824
:102100002130002380F82030036B03B1984738BD9D
:10211000080002400000024010B4036A046A24F080
:1021200001040462846924F0F00444EA021223F0FA
:102130000A031943826101625DF8044B704700BFD6
:1021400010B4036A23F0100303628469036A24F461
:10215000704444EA023223F0A00343EA0111826191
:1021600001625DF8044B7047836823F0700341F00F
:1021700007010B438360704710B4846824F47F44E4
:1021800042EA032319430C4384605DF8044B704713
:102190000268D36843F00103D3600268136843F018
:1021A000010313600020704738B590F83C30012BD4
:1021B00000F083800D460446012380F83C30022362
:1021C00080F83D300268936823F47F4323F077035F
:1021D00093600B68402B4CD00AD8102B58D002D8F3
:1021E000002B50D062E0202B57D0302B5AD05DE02E
:1021F000702B12D004D8502B27D0602B2FD055E055
:10220000B3F5805F03D0B3F5005F12D04EE00268F3
:10221000936823F00703936048E0006889686A6860
:10222000EB68FFF7A9FF2268936843F07703936098
:102230003CE0006889686A68EB68FFF79DFF2268E8
:10224000936843F48043936030E000684968EA682B
:10225000FFF762FF20685021FFF786FF26E0006845
:102260004968EA68FFF76CFF20686021FFF77CFF90
:102270001CE000684968EA68FFF74EFF20684021CB
:10228000FFF772FF12E000680021FFF76DFF0DE01D
:1022900000681021FFF768FF08E000682021FFF7C1
:1022A00063FF03E000683021FFF75EFF012384F83D
:1022B0003D30002084F83C0038BD022038BD00BF0E
:1022C000704700BF704700BF704700BF704700BF36
:1022D000704700BF10B5044603681A6912F0020F78
:1022E00017D0DA6812F0020F13D06FF002021A61F1
:1022F0000123037703689B6913F0030F02D0FFF7F4
:10230000E3FF04E0FFF7DEFF2046FFF7DFFF0023D7
:10231000237723681A6912F0040F19D0DA6812F0D3
:10232000040F15D06FF004021A610223237723688B
:102330009B6913F4407F03D02046FFF7C5FF05E0FB
:102340002046FFF7BFFF2046FFF7C0FF002323779B
:1023500023681A6912F0080F19D0DA6812F0080F12
:1023600015D06FF008021A61042323772368DB6914
:1023700013F0030F03D02046FFF7A6FF05E0204629
:10238000FFF7A0FF2046FFF7A1FF00232377236874
:102390001A6912F0100F19D0DA6812F0100F15D068
:1023A0006FF010021A61082323772368DB6913F4A6
:1023B000407F03D02046FFF787FF05E02046FFF768
:1023C00081FF2046FFF782FF0023237723681A69E5
:1023D00012F0010F09D0DA6812F0010F05D06FF08A
:1023E00001021A612046FFF76BFF23681A6912F099
:1023F000800F09D0DA6812F0800F05D06FF08002EC
:102400001A612046FFF7C6F823681A6912F0400FD8
:1024100009D0DA6812F0400F05D06FF040021A615F
:102420002046FFF755FF23681A6912F0200F09D0E4
:10243000DA6812F0200F05D06FF020021A612046F2
:10244000FFF7A6F810BD00BF0368264A90420AD0E5
:10245000B0F1804F07D0A2F59432904203D002F53C
:102460008062904203D123F070034A6813431D4AEF
:10247000904216D0B0F1804F13D0A2F59432904222
:102480000FD002F5806290420BD002F59C32904250
:1024900007D002F58062904203D002F5806290423C
:1024A00003D123F44073CA68134323F080034A69BD
:1024B000134303608B68C3620B688362094B9842C5
:1024C0000BD003F5A053984207D003F580639842E0
:1024D00003D003F58063984201D10B6903630123A4
:1024E00043617047002C0140C0B110B5044690F81C
:1024F0003D3013F0FF0F04D1002380F83C30FEF78D
:1025000083FF022384F83D30214651F8040BFFF786
:102510009BFF012384F83D30002010BD012070474F
:1025200082B0084B1B68084AA2FB03235B0A00FB2E
:1025300003F0019000BF019B5A1E0192002BF9D1BC
:1025400002B0704700000020D34D621070B582B019
:102550000446036813F0010F6BD0A84B5B6803F0CF
:102560000C03042B0AD0A54B5B6803F00C03082B6B
:102570000DD1A24B5B6813F4803F08D09F4B1B68C2
:1025800013F4003F55D06368002B52D1B8E1636863
:10259000B3F5803F05D1994A136843F48033136043
:1025A00026E063B903F1804303F504331A6822F48B
:1025B00080321A601A6822F480221A6018E0B3F59B
:1025C000A02F0CD103F18043A3F53C331A6842F4E9
:1025D00080221A601A6842F480321A6008E0874B41
:1025E0001A6822F480321A601A6822F480221A6073
:1025F00063687BB100F0CCFE054605E000F0C8FE44
:10260000401B642800F27E817C4B1B6813F4003F62
:10261000F4D00EE000F0BCFE054605E000F0B8FE88
:10262000401B642800F27081744B1B6813F4003F58
:10263000F4D1236813F0020F50D0704B5B6813F095
:102640000C0F0AD06D4B5B6803F00C03082B16D1FE
:102650006A4B5B6813F4803F11D1684B1B6813F021
:10266000020F03D02369012B40F05081634A1368A5
:1026700023F0F803616943EAC10313602EE0236984
:10268000D3B101225E4B1A6000F082FE054605E0E0
:1026900000F07EFE401B022800F23A81574B1B6877
:1026A00013F0020FF4D0554A136823F0F803616960
:1026B00043EAC103136011E00022514B1A6000F09D
:1026C00067FE054605E000F063FE401B022800F2AD
:1026D00021814A4B1B6813F0020FF4D1236813F0D9
:1026E000080F29D0A369ABB10122464B1A6000F054
:1026F0004FFE054605E000F04BFE401B022800F2AD
:102700000B813E4B5B6A13F0020FF4D00120FFF700
:1027100007FF11E000223B4B1A6000F039FE05462E
:1027200005E000F035FE401B022800F2F780334B35
:102730005B6A13F0020FF4D1236813F0040F00F06A
:1027400089802E4BDB6913F0805F0BD12B4BDA694C
:1027500042F08052DA61DB6903F080530193019B00
:10276000012500E00025284B1B6813F4807F13D15E
:10277000254A136843F48073136000F009FE06468F
:1027800005E000F005FE801B642800F2C9801E4BA6
:102790001B6813F4807FF4D0E368012B05D1174A3E
:1027A000136A43F00103136222E063B903F180432B
:1027B00003F504331A6A22F001021A621A6A22F03F
:1027C00004021A6214E0052B09D10C4B1A6A42F07C
:1027D00004021A621A6A42F001021A6208E0074B08
:1027E0001A6A22F001021A621A6A22F004021A62BC
:1027F000E368CBB100F0CCFD06460FE000100240CC
:1028000000004242800442420070004000F0C0FDDF
:10281000801B41F28833984200F28480494B1B6A46
:1028200013F0020FF2D00FE000F0B2FD064606E012
:1028300000F0AEFD801B41F28833984274D8414BC2
:102840001B6A13F0020FF3D125B13E4AD36923F07E
:102850008053D361E369002B68D03A4A526802F092
:102860000C02082A64D0022B37D10022364B1A60A2
:1028700000F08EFD054604E000F08AFD401B0228B2
:1028800058D8304B1B6813F0007FF5D1236AB3F59D
:10289000803F06D12B49CB6A23F00F02A368134374
:1028A000CB622848436823F47411236A626A134395
:1028B0000B4343600122244B1A6000F069FD04467B
:1028C00004E000F065FD001B022835D81D4B1B6895
:1028D00013F0007FF5D0002031E000221A4B1A607F
:1028E00000F056FD044604E000F052FD001B0228F3
:1028F00024D8144B1B6813F0007FF5D100201EE094
:1029000001201CE003201AE0032018E0012016E05B
:10291000032014E0032012E0032010E003200EE067
:1029200003200CE003200AE0032008E0002006E07A
:10293000012004E0032002E0032000E0032002B0B5
:1029400070BD00BF001002406000424230B488B049
:10295000184C04AD20686168A268E3680FC56D4635
:1029600054F8100F6168A268E3680FC5124B5A68EB
:1029700002F00C03082B19D1C2F3834308A90B44BE
:1029800013F8103C12F4803F0CD00B4AD26A02F0CC
:102990000F020A4412F8200C084AB2FBF0F003FBC5
:1029A00000F004E0064800FB03F000E0034808B034
:1029B00030BC7047686900080010024000127A00BD
:1029C00000093D0038B50446036813F0020F06D035
:1029D00045494B6823F0F002836813434B6023683A
:1029E00013F0010F4DD06268012A05D13E4B1B68E0
:1029F00013F4003F0DD16BE0022A05D13A4B1B685E
:102A000013F0007F05D165E0374B1B6813F0020F10
:102A100062D035494B6823F0030313434B6000F049
:102A2000B7FC05466368012B0ED106E000F0B0FC50
:102A3000401B41F28833984250D82B4B5B6803F01F
:102A40000C03042BF2D11CE0022B15D106E000F0A0
:102A50009FFC401B41F28833984241D8224B5B686F
:102A600003F00C03082BF2D10BE000F091FC401BAB
:102A700041F28833984235D81B4B5B6813F00C0F3A
:102A8000F3D1236813F0040F06D017494B6823F4E1
:102A9000E062E36813434B60236813F0080F07D02C
:102AA000114A536823F46053216943EAC103536018
:102AB000FFF74CFF0C4B5B68C3F303130B4AD35C6B
:102AC000D8400B4B1860002000F038FC002038BDC7
:102AD000012038BD012038BD012038BD032038BD9C
:102AE000032038BD032038BD00100240D86900081B
:102AF00000000020014B1868704700BF0000002054
:102B000008B5FFF7F7FF044B5B68C3F30223034AE2
:102B1000D35CD84008BD00BF00100240E86900083F
:102B200008B5FFF7E7FF044B5B68C3F3C223034A12
:102B3000D35CD84008BD00BF00100240E86900081F
:102B400070B582B00446036813F0010F5CD0384BB7
:102B5000DB6913F0805F0BD1354BDA6942F08052AC
:102B6000DA61DB6903F080530193019B012600E0E9
:102B70000026304B1B6813F4807F12D12D4A136856
:102B800043F48073136000F003FC054604E000F09A
:102B9000FFFB401B642844D8264B1B6813F4807F3E
:102BA000F5D0234B1B6A13F4407321D0626802F402
:102BB00040729A421CD01E4A136A23F440701E4988
:102BC00001250D6000250D60106213F0010F0FD07C
:102BD00000F0DEFB054606E000F0DAFB401B41F2A8
:102BE000883398421FD8124B1B6A13F0020FF3D0A0
:102BF0000F490B6A23F44072636813430B621EB1E2
:102C0000CB6923F08053CB61236813F0020F0CD003
:102C100007494B6823F44042A36813434B600020EC
:102C200004E0032002E0032000E0002002B070BDB9
:102C300000100240007000404004424208B50128E4
:102C400002D002281CD026E0194B1B6A40F2023247
:102C50001A40B2F5817F20D003F44073B3F5007FB2
:102C600004D1134A526A12F0020F19D1B3F5407F12
:102C700019D10F4B1B6813F4003F16D1002008BD7B
:102C8000FFF74EFF0A4B5B68C3F3813301335B00F0
:102C9000B0FBF3F008BD002008BD4FF4004008BDB4
:102CA00049F6404008BD002008BD4FF2244008BD51
:102CB000001002400268D36823F0C003D3602023D1
:102CC00080F83930704700BF0268D36823F49073EE
:102CD000D3600268536923F001035361202380F815
:102CE0003A3070472DE9F843044601680B6923F434
:102CF0004052C36813430B618168036919434369F8
:102D00001943C36919430068C26822F4164323F0CB
:102D10000C030B43C36021684B6923F44072A36921
:102D200013434B61E369B3F5004F40F0AE80266872
:102D3000AD4B9E4254D1FFF7F3FE00EB800000EB59
:102D4000800065686D00B0FBF5F5A84FA7FB053561
:102D50006D092D01FFF7E4FE00EB800000EB800021
:102D600063685B00B0FBF3F8FFF7DAFE00EB80006E
:102D700000EB800063685B00B0FBF3F3A7FB032369
:102D80005B094FF0640909FB1383DB003233A7FBB7
:102D900003231B0903F4F8731D44FFF7C1FE00EB86
:102DA000800000EB800063685B00B0FBF3F8FFF786
:102DB000B7FE00EB800000EB800063685B00B0FBB7
:102DC000F3F3A7FB03235B0909FB1383DB00323317
:102DD000A7FB0323C3F342131D44B560BDE8F8838A
:102DE000FFF78EFE00EB800000EB800065686D0051
:102DF000B0FBF5F57D4FA7FB05356D092D01FFF7FC
:102E00007FFE00EB800000EB800063685B00B0FB9E
:102E1000F3F8FFF775FE00EB800000EB80006368BD
:102E20005B00B0FBF3F3A7FB03235B094FF06409DE
:102E300009FB1383DB003233A7FB03231B0903F4D5
:102E4000F8731D44FFF75CFE00EB800000EB800090
:102E500063685B00B0FBF3F8FFF752FE00EB800005
:102E600000EB800063685B00B0FBF3F3A7FB032378
:102E70005B0909FB1383DB003233A7FB0323C3F396
:102E800042131D44B560BDE8F8832668564B9E4248
:102E900054D1FFF745FE00EB800000EB8000656831
:102EA000AD00B0FBF5F5514FA7FB05356D092D01C0
:102EB000FFF736FE00EB800000EB800063689B00AC
:102EC000B0FBF3F8FFF72CFE00EB800000EB800076
:102ED00063689B00B0FBF3F3A7FB03235B094FF090
:102EE000640909FB13831B013233A7FB03235B092E
:102EF00003F0F0031D44FFF713FE00EB800000EB2E
:102F0000800063689B00B0FBF3F8FFF709FE00EB5D
:102F1000800000EB800063689B00B0FBF3F3A7FB2D
:102F200003235B0909FB13831B013233A7FB032334
:102F3000C3F343131D44B560BDE8F883FFF7E0FD1C
:102F400000EB800000EB80006568AD00B0FBF5F59C
:102F5000264FA7FB05356D092D01FFF7D1FD00EBCD
:102F6000800000EB800063689B00B0FBF3F8FFF784
:102F7000C7FD00EB800000EB800063689B00B0FBA6
:102F8000F3F3A7FB03235B094FF0640909FB1383E9
:102F90001B013233A7FB03235B0903F0F0031D443D
:102FA000FFF7AEFD00EB800000EB800063689B0044
:102FB000B0FBF3F8FFF7A4FD00EB800000EB80000E
:102FC00063689B00B0FBF3F3A7FB03235B0909FBDA
:102FD00013831B013233A7FB0323C3F343131D44A5
:102FE000B560BDE8F88300BF003801401F85EB5194
:102FF0002DE9F04106460C4617469846069D1EE010
:10300000B5F1FF3F1BD02DB100F0C2F9C8EB0000B5
:10301000A84214D93268D36823F4D073D3603268DD
:10302000536923F001035361202386F8393086F871
:103030003A30002386F838300320BDE8F081336849
:103040001B682340A34214BF00230123BB42D7D0F7
:103050000020BDE8F08100BF68B310B5044690F8C9
:10306000393013F0FF0F04D1002380F83830FEF719
:1030700019FA242384F839302268D36823F40053E2
:10308000D3602046FFF72EFE2268136923F4904395
:1030900013612268536923F02A0353612268D368BD
:1030A00043F40053D3600020E063202384F83930D8
:1030B00084F83A3010BD0120704700BF2DE9F0417F
:1030C00082B004461E4690F83930DBB2202B54D132
:1030D0000D469046002952D0002A52D090F8383040
:1030E000012B50D0012380F838300023C363212303
:1030F00080F8393000F04CF90746A4F82480A4F891
:10310000268026E0E38C013B9BB2E384A368B3F501
:10311000805F12D100962046802100223B46FFF7B7
:1031200067FF90BB22682B88C3F3080353602369B1
:103130000BB902350DE001350BE0009620468021E9
:1031400000223B46FFF754FF08BB23682A785A60E9
:103150000135E38C9BB2002BD4D100962046402150
:1031600000223B46FFF744FF034690B9202284F833
:103170003920002284F838200CE002230AE00123E1
:1031800008E0012306E0022304E0032302E0032316
:1031900000E00323184602B0BDE8F08170B582B0AC
:1031A0000446134690F83A20D2B2202A3CD10E466B
:1031B00000293BD0002B3BD090F83820012A39D091
:1031C000012280F83820A16283850025C563222270
:1031D00080F83A20426B19499162426B1849D162DA
:1031E000426B18491163426B55630168406B0431AF
:1031F0003246FEF7B7FE019523681A6801925A68B5
:103200000192019A84F83850DA6842F48072DA60E8
:103210002268536943F0010353612268536943F004
:1032200040035361284606E0022004E0012002E04A
:10323000012000E0022002B070BD00BF493200084A
:103240008D3200089D32000808B5436A0268126892
:1032500012F0200F13D10022DA851968CA6822F40F
:103260008072CA6019684A6922F001024A611968CD
:103270004A6922F040024A61202283F83A20184627
:10328000FEF724FC08BD00BF704700BF08B5406AC8
:10329000FFF7FAFF08BD00BF704700BF10B5446AD2
:1032A00023685B6903F0800294F83930DBB2212B8C
:1032B00005D122B10023E3842046FFF7FBFC2368FD
:1032C0005B6903F0400294F83A30DBB2222B05D15F
:1032D00022B10023E3852046FFF7F6FCE36B43F0C1
:1032E0001003E3632046FFF7D7FF10BD104B1A68A9
:1032F00042F001021A6059680E4A0A405A601A6880
:1033000022F0847222F480321A601A6822F4802239
:103310001A605A6822F4FE025A604FF41F029A6043
:103320000022DA624FF00062034B9A60704700BFE0
:10333000001002400000FFF800ED00E010B5044668
:10334000074B1B680748A0FB03308009FDF7C6FF49
:103350004FF0FF3021460022FDF782FF002010BD14
:1033600000000020D34D621008B50320FDF766FF72
:103370000020FFF7E3FFFDF7DDFF002008BD00BFE1
:10338000024A136801331360704700BFE002002057
:10339000014B1868704700BFE0020020F0B583B011
:1033A00000273C46DAE00122A2400B68134093421A
:1033B00040F0D3804D68122D2DD00BD8022D27D090
:1033C00003D85DB3012D1ED035E0032D30D0112D73
:1033D0001BD030E0644EB54220D008D8A6F5801648
:1033E000B5421BD006F58036B54224D116E05F4EBB
:1033F000B54213D006F58036B5420FD0A6F580163B
:10340000B54218D10AE0CF6815E0CF68043712E062
:10341000CF6808370FE0CF680C370CE08D684DB1EE
:10342000012D02D10261082705E04261082702E070
:10343000002700E00427FF2B01D8844601E000F1BB
:10344000040CFF2B02D84FEA840E03E0A4F1080E0F
:103450004FEA8E0EDCF800600F2202FA0EF226EA26
:10346000020507FA0EF22A43CCF800204A6812F04F
:10347000805F72D03E4A956945F001059561926979
:1034800002F001020192019A4FEA940E0EF1020538
:10349000384A52F8256004F0030C4FEA8C0C0F22D6
:1034A00002FA0CF226EA0205334A904213D002F5E2
:1034B000806290420DD002F58062904207D002F502
:1034C0008062904201D1032206E0042204E002223D
:1034D00002E0012200E0002202FA0CF22A430EF17F
:1034E000020E244D45F82E204A6812F4803F05D084
:1034F00005F580652A681A432A6004E01F4D2A6892
:1035000022EA03022A604A6812F4003F04D01B4DED
:103510006A681A436A6004E0184D6A6822EA030286
:103520006A604A6812F4801F04D0144DAA681A43D6
:10353000AA6004E0114DAA6822EA0302AA604A6860
:1035400012F4001F04D00D4DEA681343EB6004E051
:103550000A4DEA6822EA0303EB6001340F2C7FF680
:1035600022AF03B0F0BD00BF0000211000003110F9
:10357000001002400000014000080140000401402A
:103580000AB10161704709040161704710B5402814
:1035900040D007D8202869D030287DD0102840F0AE
:1035A000BC808FE0802809D002D8602848D010BDA8
:1035B000902800F09D80C02816D010BD574C2046A2
:1035C00001210A46FFF7DCFF204602210022FFF717
:1035D000D7FF204604210022FFF7D2FF2046082112
:1035E0000022FFF7CDFF10BD4C4C204601210A46BA
:1035F000FFF7C6FF204602210122FFF7C1FF204648
:1036000004210022FFF7BCFF204608210022FFF71B
:10361000B7FF10BD414C204601210022FFF7B0FF4B
:10362000204602210122FFF7ABFF204604210022A1
:10363000FFF7A6FF204608210022FFF7A1FF10BDDB
:10364000364C204601210022FFF79AFF2046022136
:103650000122FFF795FF204604210122FFF790FF8A
:10366000204608210022FFF78BFF10BD2B4C20467F
:1036700001210022FFF784FF204602210022FFF7EC
:103680007FFF204604210122FFF77AFF2046082110
:103690000022FFF775FF10BD204C204601210022BB
:1036A000FFF76EFF204602210022FFF769FF204648
:1036B00004210122FFF764FF204608210122FFF7C1
:1036C0005FFF10BD154C204601210022FFF758FF77
:1036D000204602210022FFF753FF2046042100224A
:1036E000FFF74EFF204608210122FFF749FF10BDDA
:1036F0000A4C204601210A46FFF742FF20460221DC
:103700000022FFF73DFF204604210022FFF738FF8B
:10371000204608210122FFF733FF10BD00100140B1
:1037200010B501380B2800F2B780DFE800F08A5EA0
:103730007432B548B506A0B5B51C584C20461021CA
:103740000122FFF71DFF204620210022FFF718FF6E
:10375000204640210022FFF713FF2046802100224F
:10376000FFF70EFF10BD4D4C204610210122FFF740
:1037700007FF204620210122FFF702FF20464021BB
:103780000022FFF7FDFE204680210022FFF7F8FE11
:1037900010BD424C204610210022FFF7F1FE2046CA
:1037A00020210122FFF7ECFE204640210022FFF7F6
:1037B000E7FE204680210022FFF7E2FE10BD374CD5
:1037C000204610210022FFF7DBFE204620210122A7
:1037D000FFF7D6FE204640210122FFF7D1FE20460A
:1037E00080210022FFF7CCFE10BD2C4C204610217A
:1037F0000022FFF7C5FE204620210022FFF7C0FE71
:10380000204640210122FFF7BBFE204680210022F6
:10381000FFF7B6FE10BD214C204610210022FFF715
:10382000AFFE204620210022FFF7AAFE20464021BD
:103830000122FFF7A5FE204680210122FFF7A0FE0E
:1038400010BD164C204610210022FFF799FE20469D
:1038500020210022FFF794FE204640210022FFF79E
:103860008FFE204680210122FFF78AFE10BD0B4CFF
:10387000204610210122FFF783FE2046202100224E
:10388000FFF77EFE204640210022FFF779FE20460A
:1038900080210122FFF774FE10BD00BF0008014027
:1038A00010B5402845D008D8202872D0302800F024
:1038B0008880102840F0CC809BE0802809D002D876
:1038C00060284ED010BD902800F0AB80C02818D0E2
:1038D00010BD604C204640210122FFF751FE2046DA
:1038E00080210022FFF74CFE20464FF48071002219
:1038F000FFF746FE20464FF400710022FFF740FE1E
:1039000010BD544C204640210122FFF739FE2046CD
:1039100080210122FFF734FE20464FF480710022FF
:10392000FFF72EFE20464FF400710022FFF728FE1D
:1039300010BD484C204640210022FFF721FE2046C2
:1039400080210122FFF71CFE20464FF480710022E7
:10395000FFF716FE20464FF400710022FFF710FE1D
:1039600010BD3C4C204640210022FFF709FE2046B6
:1039700080210122FFF704FE20464FF480710122CE
:10398000FFF7FEFD20464FF400710022FFF7F8FD1F
:1039900010BD304C204640210022FFF7F1FD2046AB
:1039A00080210022FFF7ECFD20464FF480710122B8
:1039B000FFF7E6FD20464FF400710022FFF7E0FD1F
:1039C00010BD244C204640210022FFF7D9FD20469F
:1039D00080210022FFF7D4FD20464FF480710122A0
:1039E000FFF7CEFD20464FF400710122FFF7C8FD1E
:1039F00010BD184C204640210022FFF7C1FD204693
:103A000080210022FFF7BCFD20464FF48071002288
:103A1000FFF7B6FD20464FF400710122FFF7B0FD1D
:103A200010BD0C4C204640210122FFF7A9FD204685
:103A300080210022FFF7A4FD20464FF48071002270
:103A4000FFF79EFD20464FF400710122FFF798FD1D
:103A500010BD00BF0010014010B501380B2800F266
:103A6000D780DFE800F0A26E883AD554D506BCD5E1
:103A7000D520684C20464FF480710122FFF780FD6D
:103A800020464FF400710022FFF77AFD20464FF4E4
:103A900080610022FFF774FD20464FF40061002290
:103AA000FFF76EFD10BD5B4C20464FF48071012284
:103AB000FFF766FD20464FF400710122FFF760FD1D
:103AC00020464FF480610022FFF75AFD20464FF454
:103AD00000610022FFF754FD10BD4E4C20464FF40C
:103AE00080710022FFF74CFD20464FF40071012247
:103AF000FFF746FD20464FF480610022FFF740FDAE
:103B000020464FF400610022FFF73AFD10BD414C02
:103B100020464FF480710022FFF732FD20464FF41B
:103B200000710122FFF72CFD20464FF48061012235
:103B3000FFF726FD20464FF400610022FFF720FD2D
:103B400010BD344C20464FF480710022FFF718FD61
:103B500020464FF400710022FFF712FD20464FF47B
:103B600080610122FFF70CFD20464FF40061002226
:103B7000FFF706FD10BD274C20464FF48071002250
:103B8000FFF7FEFC20464FF400710022FFF7F8FC1F
:103B900020464FF480610122FFF7F2FC20464FF4EB
:103BA00000610122FFF7ECFC10BD1A4C20464FF4D7
:103BB00080710022FFF7E4FC20464FF400710022E0
:103BC000FFF7DEFC20464FF480610022FFF7D8FCAF
:103BD00020464FF400610122FFF7D2FC10BD0D4CCE
:103BE00020464FF480710122FFF7CAFC20464FF4B3
:103BF00000710022FFF7C4FC20464FF480610022D0
:103C0000FFF7BEFC20464FF400610122FFF7B8FC2D
:103C100010BD00BF0008014008B503484021012243
:103C2000FFF7AEFC08BD00BF000C014008B503481B
:103C300080210122FFF7A4FC08BD00BF000C014059
:103C400008B503484FF480710122FFF799FC08BDC5
:103C5000000C014008B503484FF400710122FFF742
:103C60008FFC08BD000C014008B50348402100222C
:103C7000FFF786FC08BD00BF000C014008B50348F3
:103C800080210022FFF77CFC08BD00BF000C014032
:103C900008B503484FF480710022FFF771FC08BD9E
:103CA000000C014003785BB110B5044600F052FEF1
:103CB00082B2044821464FF0FF33FFF7FFF910BDF1
:103CC000704700BFA002002000B583B08DF804004B
:103CD0000A238DF8053001A800F03CFE82B20448AA
:103CE00001A94FF0FF33FFF7E9F903B05DF804FBDA
:103CF000A002002000210B4609E002EBC30302EB07
:103D0000C3039BB283EA13230131402909D0425CEB
:103D10002A2AF2D10131425CDBB29A4203D101205E
:103D20007047002070470020704700BF2DE9F84F12
:103D30000546472100F000FE28B1013000F0CAFD21
:103D4000C7B2802401E00024274628464D2100F018
:103D5000F3FD30B1013000F0BDFDC6B244F04004C7
:103D600000E000262846532100F0E6FD08B144F0AB
:103D700020042846582100F0DFFD40B1013000F05A
:103D8000A6FDFCF711FF834644F0100401E04FF05C
:103D9000000B2846592100F0CFFD40B1013000F062
:103DA00096FDFCF701FF824644F0080401E04FF065
:103DB000000A28465A2100F0BFFD40B1013000F052
:103DC00086FDFCF7F1FE814644F0040401E04FF06B
:103DD00000092846452100F0AFFD40B1013000F058
:103DE00076FDFCF7E1FE804644F0020401E04FF06E
:103DF00000082846462100F09FFD40B1013000F048
:103E000066FDFCF7D1FE4E4B186044F00104002C17
:103E100000F0908014F0800F5BD0012F05D0002FB0
:103E200000F08B805C2F32D04EE014F0100F03D0E6
:103E3000444BC3F800B003E0434B1A68414B1A608F
:103E400014F0080F03D03F4BC3F804A003E03E4B2F
:103E50005A683C4B5A6014F0040F03D0394BC3F836
:103E6000089003E0384B9A68364B9A6014F0020FC2
:103E700003D0344BC3F80C8003E0334BDA68314B8A
:103E8000DA602F4B186800F06DF8BDE8F88F14F079
:103E9000100F02D02C4BC3F800B014F0080F02D062
:103EA000294BC3F804A014F0040F02D0264BC3F82A
:103EB000089014F0020F02D0234BC3F80C80234863
:103EC000FFF7F0FEBDE8F88F2148FFF7EBFEBDE8F5
:103ED000F88F14F0400F28D0332E0DD0692E15D056
:103EE000322E1DD11B4A137843F02003137017485C
:103EF000FFF7D8FEBDE8F88F164A137823F02003A9
:103F000013701248FFF7CEFEBDE8F88F124B1878F9
:103F1000FFF7DAFE114B1878FFF7D6FEBDE8F88FF1
:103F20000B48FFF7BFFEBDE8F88F0948FFF7BAFE60
:103F3000BDE8F88F0A48FFF7B5FEBDE8F88F00BF6F
:103F4000040000202001002034010020F069000856
:103F5000F4690008300100204401002031010020F4
:103F6000146A00082DE9F0478146974D974C286860
:103F70002168FCF76DFE804668686168FCF768FEA2
:103F80000746A868A168FCF763FE0646E868E16892
:103F9000FCF75EFE054640468D49FCF763FF8D4CFD
:103FA000FDF726F9206038468949FCF75BFFFDF7ED
:103FB0001FF9606030468849FCF754FFFDF718F997
:103FC000A06028468549FCF74DFFFDF711F9E06038
:103FD00040464146FCF746FF824638463946FCF7E4
:103FE00041FF01465046FCF735FE824630463146D9
:103FF000FCF738FF01465046FCF72CFE8246284667
:104000002946FCF72FFF01465046FCF723FE824667
:104010005046FCF793FA02F069FBFCF7C5FD8246B7
:104020002368626802FB02F203FB0322A36803FB1E
:104030000323E46804FB04342046FCF76DFA02F025
:1040400055FBFCF769FD664B186048460021FDF7FB
:10405000C5F8002800F09A8050460021FDF7BEF810
:10406000002800F0938040460021FDF78FF8D0B97A
:104070004046FDF7BDF80028B8BF4042FCF79EFE61
:1040800004464946FCF7EEFE5146FCF79FFF5549B2
:10409000FDF7A4F838B150465249FCF7E3FE21463B
:1040A000FCF794FF814638460021FDF76FF8D0B940
:1040B0003846FDF79DF80028B8BF4042FCF77EFE69
:1040C00004464946FCF7CEFE5146FCF77FFF4549C2
:1040D000FDF784F838B150464249FCF7C3FE21464B
:1040E000FCF774FF814630460021FDF74FF8D0B948
:1040F0003046FDF77DF80028B8BF4042FCF75EFE71
:1041000004464946FCF7AEFE5146FCF75FFF3649D0
:10411000FDF764F838B150463349FCF7A3FE214659
:10412000FCF754FF814628460021FDF72FF8D0B94F
:104130002846FDF75DF80028B8BF4042FCF73EFE78
:1041400004464946FCF78EFE5146FCF73FFF2749DF
:10415000FDF744F838B150462449FCF783FE214668
:10416000FCF734FF81464846FDF742F800EB80003B
:1041700040001F4B93FBF0F01E4B186044F6206389
:104180001D4A13601D48C360FEF7AEF91C4B0022A8
:104190001A605A609A60DA600E4B1B680BB1FFF729
:1041A0003BFD0C4B5B680BB1FFF740FD094B9B6877
:1041B0000BB1FFF745FDFFF74DFD124A137863F091
:1041C0007F031370BDE8F087200100203401002038
:1041D0000000204148010020000098430000A04159
:1041E0005801002000606A4600803B4500409C4525
:1041F00000879303F8020020E4020020B0010020B1
:10420000E80200203001002008B500280ADD421E27
:10421000224B9B5C072B01D0013300E000231F4998
:104220008B5408E0C2431D4B9B5C0BB1013B00E08B
:1042300007231A498B54043008282DD8DFE800F0F2
:10424000281E140A2C050F192300154AD05CFFF70D
:104250009DF908BD124AD05CFFF798F908BD114AD4
:10426000D05CFFF75DFA08BD0E4AD05CFFF758FA44
:1042700008BD0D4AD05CFFF713FB08BD0A4AD05CAD
:10428000FFF70EFB08BD094AD05CFFF7E5FB08BD50
:10429000064AD05CFFF7E0FB08BD00BF5C010020D0
:1042A000306A0008386A0008406A0008486A000856
:1042B000532303FB00F0034BA3FB0030400A7F3085
:1042C000704700BF1F85EB51532303FB00F0024BE7
:1042D000A3FB0030C0097047CDCCCCCC08B5034857
:1042E0004FF480610122FFF74BF908BD0010014037
:1042F00008B503484FF480610022FFF741F908BD7B
:104300000010014008B503484FF400610122FFF797
:1043100037F908BD0010014008B503484FF40061AB
:104320000022FFF72DF908BD00100140F0B583B061
:1043300005460C4600230193FFF72AF82B689A687C
:1043400012F4807F08D0AB6A43F02003AB620023F5
:1043500085F82430012097E006465A6812F4807FE1
:104360001CD1DB6A13F4700F12D017E0B4F1FF3FD9
:104370000ED024B1FFF70CF8801BA04208D9AB6A1D
:1043800043F00403AB62002385F8243003207BE074
:104390002B681B6813F0020FE8D051E03B4B1F68FD
:1043A0000220FEF74BFCB7FBF0F02B681969384A86
:1043B000114212D1D96802F15C4211420DD1196942
:1043C000344A114205D1DA68334B1A4203D029230B
:1043D0001BE0292319E0142317E019692D4A114223
:1043E00004D1D96802F16E42114209D019692B4AF1
:1043F0000A403AB9DA68294B13402BB1FC2304E098
:10440000542302E0FC2300E0542303FB00F714E0F4
:10441000B4F1FF3F0ED024B1FEF7BAFF801BA042DB
:1044200008D9AB6A43F00403AB62002385F824305B
:10443000032029E0019B01330193019BBB42E7D399
:104440002B686FF012021A60AB6A43F40073AB6220
:104450002B689B6803F46023B3F5602F0FD1EB68E2
:104460007BB9AB6A23F48073AB62AB6A13F4805FF1
:1044700009D1AB6A43F00103AB62002004E00020E5
:1044800002E0002000E0002003B0F0BD00000020AA
:1044900024499224922449129224490049922400EA
:1044A0000368D86C704700BF70B483B000230193D9
:1044B00090F82430012B00F08380012380F8243011
:1044C0004B68062B0DD80668756B03EB8303053B21
:1044D0001F229A4025EA02040A689A402243726326
:1044E0001CE00C2B0DD80668356B03EB8303233BD4
:1044F0001F229A4025EA02040A689A402243326346
:104500000CE00668F56A03EB8303413B1F229A40E7
:1045100025EA02040A689A402243F2620B68092BDA
:104520000DD90668F56803EB43031E3B07229A404A
:1045300025EA02048A689A402243F2600BE006688A
:10454000356903EB430307229A4025EA02048A688F
:104550009A40224332610B68103B012B26D8036836
:10456000194A93421CD19A6812F4000F20D19A681C
:1045700042F400029A600B68102B1BD1134B1B688E
:10458000134AA2FB03239B0C03EB83035B00019301
:1045900002E0019B013B0193019B002BF9D10AE052
:1045A000836A43F020038362012304E0002302E0D6
:1045B000002300E00023002280F82420184600E0B9
:1045C000022003B070BC70470024014000000020AE
:1045D00083DE1B4330B583B00023019303689A68E0
:1045E00012F0010F2FD19A6842F001029A60174B26
:1045F0001B68174AA2FB03239B0C019302E0019B5B
:10460000013B0193019B002BF9D10446FEF7C0FE4C
:10461000054611E0FEF7BCFE401B02280CD9A36A38
:1046200043F01003A362E36A43F00103E362002353
:1046300084F82430012007E023689B6813F0010F01
:10464000E8D0002000E0002003B030BD00000020D2
:1046500083DE1B4390F82430012B47D010B504466D
:10466000012380F82430FFF7B5FF0346002838D136
:10467000A26A22F4407222F0010242F48072A26225
:10468000A26A22F48012A2622268516811F4806F3B
:1046900005D0A16A21F4405141F48051A162A16A80
:1046A00011F4805F04D0E16A21F00601E16201E0CB
:1046B0000021E162002184F824106FF002011160F2
:1046C00021688A6802F46022B2F5602F04D18A68FA
:1046D00042F4A0028A6007E08A6842F480128A608D
:1046E00002E0002284F82420184610BD0220704702
:1046F00038B503689A6812F0010F1ED004469A6814
:1047000022F001029A60FEF743FE05460EE0FEF736
:104710003FFE401B022809D9A36A43F01003A3629D
:10472000E36A43F00103E362012038BD23689B681C
:1047300013F0010FEBD1002038BD002038BD00BFC1
:1047400000287DD038B50446836A23B9C36280F857
:104750002430FCF739FE2046FFF7CAFFA36A13F0A6
:10476000100F67D1002865D1A36A23F4885323F082
:10477000020343F00203A3626268E3691343E16842
:1047800043EA4103A268B2F5807F04D0012A05D133
:104790004FF4807203E04FF4807200E000226569FC
:1047A000012D0FD131B9A169013942EA413242F4F8
:1047B000006207E0A16A41F02001A162E16A41F0D4
:1047C0000101E1622568696821F469410A436A6070
:1047D00021688D681B4A2A401A438A60A268B2F594
:1047E000807F01D0012A03D12269013A110500E03E
:1047F00000212568EA6A22F470020A43EA6222680C
:104800009168114A0A40934208D10023E362A36AE7
:1048100023F0030343F00103A36238BDA36A23F02E
:10482000120343F01003A362E36A43F00103E3625F
:10483000012038BDA36A43F01003A362012038BDF4
:1048400001207047FDF7E1FFFE0E1FFF90F82430B6
:10485000012B15D010B50446012380F82430FFF752
:1048600047FF034638B9A26A22F4885222F00102B7
:1048700042F00102A262002284F82420184610BDF2
:1048800002207047002103E00B4B5B58435004317A
:104890000A480B4B42189A42F6D30A4A02E0002318
:1048A00042F8043B084B9A42F9D3FEF71FFD00F093
:1048B00015F8FDF7D7FA7047CC6C0008000000200F
:1048C000AC000020AC00002000030020FEE7002127
:1048D00000F09EBE00210A2200F02ABF0E4B70B5E8
:1048E0001E460E4C0025E41AA410A54204D056F82A
:1048F000253098470135F8E702F02AF8084B094CB3
:104900001E46E41AA4100025A54204D056F825300E
:1049100098470135F8E770BDC46C0008C46C000806
:10492000C46C0008C86C000803460244934202D0DD
:1049300003F8011BFAE77047C9B2034610F8012BD0
:104940001AB18A42F9D11846704700290CBF18469F
:1049500000207047034613F8012B002AFBD1181AD8
:104960000138704730B5036811F8014B01334CB181
:104970001A78A2F14105192D98BF2032A242F3D036
:10498000002030BD0360012030BD2DE9F0410F460D
:10499000904601F0C3FC04460D46B8F1000F11D05B
:1049A000C7F30A53C3F16B03002B0BDD1B0503F1A7
:1049B0007F55002405F5401522462B46FBF712FED5
:1049C000BDE8F08120462946BDE8F08100000000E6
:1049D0002DE9F04F00239FB01A9382460B460391B6
:1049E00015924FF000084FF000091993199B1A789F
:1049F0000D2A05D8092A13D2002A00F0B78111E048
:104A00002B2A06D02D2A02D0202A0BD108E0012221
:104A100000E0002209925A1C19925B7823B9A5E1A3
:104A20000133E2E700230993199C2378302B5CD1F2
:104A30006378582B01D0782B4CD11AAB0093099B8B
:104A40005046019319A9AE4A1BAB00F0CAFE10F004
:104A50000706054600F0A585062E05D10134002382
:104A60001994099300F09DBD1A9A3AB11CA83521FA
:104A700001F041FD50461A9901F0B8F91B9A062E33
:104A800021D8DFE806F0040D08171C0D04004FF0D4
:104A90000009C84617E0DDF87080DDF8749012E078
:104AA0001D9B02F2334223F48013DDF8708043EA49
:104AB000025908E0DFF84C924FF0000803E06FF075
:104AC00000494FF0FF38290740F16B8549F0004954
:104AD00000F067BD199B5A1C19925B78302BF9D0F6
:104AE000002B00F05E85012300E000230026B34682
:104AF00035460493199B0793199C2778A7F1300337
:104B0000DAB2092A0CD8082D4FF00A0204F1010488
:104B1000D4BF02FB0B3B02FB063601351994EBE7D1
:104B2000504601F01FF901685046059101F01AF94D
:104B30000068FFF70FFF05990246204601F0B4FD1B
:104B400028B100203B462C460246074657E0059018
:104B5000504601F007F90068FFF7FCFE199B059924
:104B60001A1819921B5C002D41D12846302B05D113
:104B7000199B01305A1C19925B78F7E7A3F13102B7
:104B8000082A42D8199A0792024600200446303B70
:104B900000F1010125D00A4421460719B94211D07C
:104BA000013101F1FF3EBEF1080F04DC4FF00A0EA7
:104BB0000EFB0BFBF2E71029DCBF4FF00A0E0EFBD9
:104BC00006F6EBE72044082800F1010403DC0A2183
:104BD00001FB0B3B04E0102CDCBF0A2101FB063675
:104BE0000021199B581C19905B78084602E02C465E
:104BF00008460A46A3F130010929C8D90127652BC7
:104C000001D0452B64D16CB904E0652B40F0D7840A
:104C10000022012728B9049B002B00F0A78004463E
:104C200000E00024199B039301331993039B5B78E5
:104C30002B2B07D02D2B02D04FF0000C09E04FF0AA
:104C4000010C01E04FF0000C039B02331993039B0E
:104C50009B78A3F13001092938D81946302904D1AD
:104C6000199B591C19915978F8E7A1F1310EBEF141
:104C7000080F0B462CD8A1F130030593199B06931E
:104C8000199B03F1010ECDF864E05B78A3F13001CC
:104C9000092908D805994FF00A0E0EFB0131A1F140
:104CA00030030593ECE70699C1EB0E0EBEF1080F39
:104CB00044F61F6E04DC05997145A8BF714600E0FB
:104CC0007146BCF1000F04D0494202E003991991EA
:104CD0000021002C54D1002840F06384049A002A5B
:104CE00040F05F84002F41D14E2B20D002DC492BB5
:104CF0000AD03BE0692B07D06E2B18D036E000BFFE
:104D0000A06A00080000F07F19A8AA49FFF72AFE50
:104D100060B3199B19A8013BA7491993FFF722FE1D
:104D200010B9199B01331993DFF8A4921AE019A85E
:104D3000A249FFF717FEC8B1199B1B78282B0FD18A
:104D400019A89F491CAA00F083FF052808D11D9BC4
:104D5000DDF8708043F0FF4949F4E00900F021BC20
:104D6000DFF870924FF0000800F01BBC039B199312
:104D7000159B002B00F020840023099300F013BC46
:104D80008B1A06932B46002D08BF23465846102C3D
:104D900025460393A8BF1025FBF7AEFB092D8046DF
:104DA000894613DD874B03EBC50353E91223FBF759
:104DB00019FC804630468946FBF79EFB02460B46AF
:104DC00040464946FBF75CFA804689460F2C36DCA4
:104DD000069B002B00F0E58324DD162B07DC794AC7
:104DE00002EBC302D2E900014B46424615E0069AA7
:104DF000C4F125039A4222DC724DC4F10F0405EB85
:104E0000C403D3E9000142464B46FBF7EBFB069B8C
:104E10001C1B05EBC405D5E90023FBF7E3FB80462B
:104E20008946BEE3069B13F1160F08DB654A404630
:104E3000A2EBC30249460CCAFBF7FEFCEFE7069B58
:104E4000651B1D44002D58DD15F00F020AD05D4B87
:104E500003EBC203D3E9000142464B46FBF7C2FB1A
:104E60008046894635F00F0500F0BA80B5F59A7F87
:104E70000FDD4FF0000BCDF80CB0CDF81CB0CDF825
:104E800014B02223CAF80030DFF844914FF0000834
:104E900083E14946DFF8409140464E462D110027F8
:104EA000012D0ADDEA0703D5D9E90023FBF79AFBB8
:104EB00001376D1009F10809F2E78046A1F1547934
:104EC00006EBC7064246D6E900014B46FBF78AFBD4
:104ED00021F0004389460A461B0D3B491B058B42C6
:104EE0008046C6D8A1F580118B4286BFDFF8EC90D2
:104EF0004FF0FF3802F1547972E071D06D4215F035
:104F00000F020AD02F4B404603EBC2034946D3E9B8
:104F10000023FBF791FC804689462D1160D01F2DA0
:104F200008DD4FF0000BCDF80CB0CDF81CB0CDF87B
:104F300014B02BE14046494615F0100F0CBF00237A
:104F40006A23224E0493002D08DDEB0703D5D6E932
:104F50000023FBF747FB6D100836F4E7049B8046FF
:104F60008946EBB1C1F30A53C3F16B03002B0A4628
:104F700016DD1F2B0EDD342BDEBF203B4FF0FF3143
:104F800001FA03F34FF00008CCBF4FF05C7903EA5D
:104F9000020905E04FF0FF3202FA03F303EA0008CA
:104FA0004046494600220023FBF784FD0028B8D183
:104FB00018E000BF526A0008556A00085B6A0008E2
:104FC000606A0008C06B00080000A07C786A0008D6
:104FD0000000F07F0000F8FF886C0008FFFFEF7F03
:104FE00000230493CDF800B050460799039A234656
:104FF00000F051FF079000283FF43BAF069A069B54
:10500000002AC3F100034FF0000BA8BF00230E934A
:10501000CDF80CB0079B5046596800F0B2FE0590E1
:1050200000283FF42EAF079B0C301A69079B023211
:1050300003F10C01920000F099FE1BAB00931CAB36
:105040000193504642464B46CDE90A8901F0D9F911
:105050001A9000283FF415AF5046012100F0A8FF38
:10506000039000283FF40DAF069B049923EAE377F1
:105070001B9B1C9C002BAABF0E9AFA1AD618A3EBF6
:10508000010323446FF47F71ACBF3A460E9E8B42FE
:10509000C4F1360480F28680C91A1F29A4EB0104EA
:1050A000C8BFB3494FF00100D5BF00FA01F3C91AD8
:1050B000149300FA01F3D9BF00230F930F931490B8
:1050C0003519049BB54214441C442B46A8BF3346F3
:1050D000A342A8BF2346002BC2BFED1AE41AF61A5A
:1050E0000E9B002B63D1002D7BDC002F40F08380D2
:1050F000002C00F38A80002E00F3918050461A990C
:10510000059A01F0ACF8834600283FF4BAAEC368B4
:105110000024C4600399089301F085F8A04280F24E
:105120008D80089B002B40F01582B8F1000F40F0F5
:105130001182C9F31303002B40F00C8229F00043C5
:105140001B0D1B05B3F1D66F40F20482DBF814305F
:10515000002B6ED059460122504601F011F80399F8
:10516000834601F060F8002840F3F48129F0004301
:10517000049A1B0D1B05002A00F08F80B3F1D66F37
:1051800000F38B80B3F15C7F00F3E68122234FF0C4
:1051900000084FF00009CAF80030079B002B40F0D0
:1051A000EC81FEE100230F930123149388E71A4654
:1051B0005046039900F096FF0390034600283FF401
:1051C00060AE504619461A9A00F0FBFE089000287F
:1051D0003FF457AE50461A9900F008FE089B1A9308
:1051E00081E750461A992A4600F0CAFF1A90002813
:1051F0007FF47BAF45E6504605993A4600F072FFD2
:10520000059000287FF474AF3BE65046059922468E
:1052100000F0B6FF059000287FF46DAF31E65046F0
:105220000399324600F0ACFF039000287FF466AF8C
:1052300027E6DBF81030012B8CDC8BE162D1089A79
:10524000C9F3130322B34B494A468B422ED1049B28
:10525000414663B1484B1340B3F1D46F07D81B0DDF
:10526000C3F16B034FF0FF3000FA03F301E04FF09E
:10527000FF3399421AD1414B9A4202D101313FF496
:1052800000AE3D4B4FF00008134003F5801961E17B
:1052900063B9B8F1000F09D168E7A3F580136FEA8D
:1052A00013594FF0FF386FEA095953E10F9B13B1BF
:1052B00013EA090F02E0149B13EA080F00F04A8179
:1052C000089B40464946049A53B1FFF75EFB0246ED
:1052D0000B46DDE90A01FAF7D3FF8046894639E13A
:1052E000FFF753FB02460B46DDE90A01FAF7C6FF5A
:1052F0000022002380468946FBF7DCFB00287FF470
:1053000045AF27E15846039901F0CDF800224FF050
:10531000804306460F46FBF7E1FB00283FD0089B81
:1053200013B10026164F10E0B8F1000F03D1C9F3F6
:1053300013033BB90BE0B8F1010F03D1B9F1000F32
:105340003FF424AF0F4F002600240D4D3CE03046C3
:10535000394600220A4BFBF7B7FBB8B9304639464D
:105360000022094BFBF73EF904460D4610E000BF52
:10537000E3FBFFFFFFFF0F000000F07FFFFFEF7F69
:105380000000F03F0000F0BF0000E03F089C9A4D95
:1053900005F1004316941793DDE9166714E0964B68
:1053A000304639460022FBF71DF9089B04460D469E
:1053B00023B901F100431090119303E002460B461C
:1053C000CDE91023DDE9106729F0004C4FEA1C5CA1
:1053D0008A4B4FEA0C5C9C4531D1DDE90A23A9F1E7
:1053E000547940464946CDF83CC0CDE90C2300F045
:1053F00095FF02460B4630463946FBF7F3F8024666
:105400000B4640464946FAF73BFF21F000431B0D8F
:105410007B4A1B0593428046DDF83CC00CD9794B92
:105420000D9A9A4203D10C9B01333FF42AADDFF869
:10543000D4914FF0FF387CE001F1547944E0049BB3
:1054400063B3BCF1D46F29D863A3D3E9002320460A
:105450002946CDF83CC0FBF741FBDDF83CC0C8B1A4
:1054600029462046FBF780FB002808BF0120FBF7F8
:1054700043F8089B04460D46DDF83CC023B901F112
:1054800000431290139303E002460B46CDE912232A
:10549000DDE9126707F1D663CCEB0307DDE90A010A
:1054A000CDF83CC000F03AFF02460B463046394684
:1054B000FBF798F802460B46DDE90A01FAF7E0FE31
:1054C00080468946DDF83CC0049B4E468BBB29F0E4
:1054D00000431B0D1B059C452BD129462046FBF79D
:1054E0001BFBFBF719F80B46024629462046FAF744
:1054F000C5FE089B04460D462BB9B8F1000F02D13A
:10550000C9F313067EB136A3D3E90023204629460A
:10551000FBF7DAFA88BB34A3D3E9002320462946F7
:10552000FBF7F0FA04E032A3D3E90023FBF7CCFA4F
:1055300018BB50461A9900F059FC5046059900F0E6
:1055400055FC5046039900F051FC5046594600F076
:105550004DFC5FE5049B83B12B4B40460D9300232C
:105560000C934946DDE90C23FBF73CF8804689465D
:1055700019B910B92223CAF8003050461A9900F020
:1055800035FC5046059900F031FC5046039900F077
:105590002DFC5046079900F029FC5046594600F072
:1055A00025FC159B13B1199B159A1360099B1BB120
:1055B000424609F1004307E042464B4604E000241E
:1055C00022460127FFF71DBB104619461FB0BDE854
:1055D000F08F00BFAFF300800000C0FFFFFFDF418E
:1055E0009535A094FFFFDF3F35E5AF350000E03F84
:1055F0009535A094FFFFCF3F0000E03F0000E07F23
:10560000FFFF9F7CFFFFEF7F00005039AFF300806A
:1056100003460A46024908681946FFF7D9B900BF90
:10562000680000202DE9F0470F46404CD4F8009068
:105630003D4615F801EB09EB0E04667806F0080408
:1056400004F0FF060CB12F46F2E774462D2C03D16F
:10565000BD1C7C78012603E02B2C04BF7C78BD1C8C
:1056600013B1102B0AD15AE0302C56D12C7804F00B
:10567000DF04582C4CD16C7810230235002E14BF57
:105680004FF000486FF00048B8FBF3FA0027BE4621
:1056900003FB1A8809EB040C9CF801C01CF0040FF2
:1056A00001D0303C0BE01CF0030C1BD0BCF1010F0F
:1056B0000CBF4FF0370C4FF0570CCCEB04049C425E
:1056C00010DAB7F1FF3F0AD0D64506D801D14445DC
:1056D00003DC03FB0E4E012701E04FF0FF3715F806
:1056E000014BD7E77C1C73460AD1002E4FF02201F4
:1056F00014BF4FF000436FF0004301602AB911E07E
:105700000EB1CEF100036AB107B1691E116009E064
:105710003024002BB2D10823B0E70A23AEE7302CA7
:10572000ACD1A3E71846BDE8F08700BF6C000020AD
:1057300030B505460C461346034A294610682246F2
:10574000BDE83040FFF76EBF68000020F0B5066985
:105750004B11B34200F1140527DA11F01F0105EBDC
:10576000860605EB830201D1294616E0141D55F883
:1057700023202B46C1F1200ECA40B44209D227682B
:1057800007FA0EF73A4343F8042B54F8042BCA40A7
:10579000F3E71A6052B1043308E0B2420B4605D277
:1057A00052F8043B41F8043BF7E72B465B1B9B1088
:1057B000036103B94361F0BDA0F13003092B01D8A7
:1057C00020380AE0A0F16103052B01D8473804E036
:1057D000A0F14103052B02D82738C0B27047002042
:1057E00070472DE9F04F89B08A46914604930190A5
:1057F00000F0B8FA0368002618460293FFF7AAF8EB
:10580000029B0090034413F8013C0593DAF8003042
:105810000233984613F8010B302801D10136F8E71E
:10582000FFF7CAFF0446E8B940460299009A00F023
:105830003BFF002837D1009B18F8030008EB030753
:10584000FFF7BAFF88B33B4618789846302803F133
:105850000103F9D0FFF7B0FFB0FA80F53C466D09BF
:10586000012601E000252C46C3465F4638780BF13F
:10587000010BFFF7A1FF0028F7D138460299009AE3
:1058800000F012FF58B95CB9009BFC18A3465F46B4
:1058900038780BF1010BFFF78FFF0028F7D134B1F7
:1058A000E41BA40003E0474600E0044601253B78E2
:1058B000502B01D0702B30D17B782B2B06D02D2B89
:1058C00002D07A1C002303E0012300E00023BA1C6D
:1058D000107806930392FFF76FFF411EC9B2182993
:1058E000039A069B19D8A0F1100B12F8010F06932A
:1058F00003920792FFF760FF411EC9B21829039A6D
:10590000069B05D80A2101FB0B0BABF1100BECE752
:105910000BB1CBF1000B5C4400E03A46CAF8002022
:1059200025B1002E14BF002006207CE12946C8EBDB
:105930000703013B072B02DD01315B10FAE70198F9
:1059400000F01FFA4FF0000A00F1140B05465E4606
:10595000D446474537D97B1E0393059A17F8013C77
:10596000934209D0BCF1200F1AD1C6F800A04FF025
:10597000000A0436D44613E0009B039AC3F10103E6
:1059800013444345EED318460299009ACDF81CC043
:10599000069300F089FE069BDDF81CC088B1E1E7A4
:1059A00017F8010CCDF818C0FFF706FFDDF818C096
:1059B00000F00F0000FA0CF0039B4AEA000A0CF119
:1059C000040C1F46C5E746F804ABCBEB0606B01047
:1059D00028614701504600F09EFAD9F80060381A55
:1059E000B04226DD871B3946284600F09EFDC8B12F
:1059F0007B1E5A1103F01F014FF001085BF82220B3
:105A000008FA01F111420ED0434502DC4FF00208C2
:105A100009E02846B91E00F088FD0028F6D04FF0B6
:105A2000030800E0804628463946FFF78FFE3C44D5
:105A30000CE009DA371A294601983A4600F0A0FB33
:105A40000546E41B00F1140B4FF00008D9F80830AC
:105A50009C4208DD0198294600F0C8F9129A0023FB
:105A60001360A320DFE0D9F80400844253DA041B5A
:105A7000B4422EDBD9F80C30022B1AD0032B1CD0E9
:105A8000012B1DD1B4421BD1012E0BDCD9F80430FF
:105A9000049A6220136001232B61CBF80030129B23
:105AA0001D60C0E02846711E00F03FFD0028EDD1CA
:105AB00006E0139B002BE9D002E0139B002BE5D1FD
:105AC0000198294600F092F9129A002313605020A1
:105AD000A9E0671EB8F1000F07D1002F07DD2846A7
